:020000040800F2
:100000006019002049010008FB170008DB150008F3
:10001000F9170008B70200083120000800000000AE
:10002000000000000000000000000000111900089E
:10003000E10200080000000061180008F119000842
:100040006301000863010008630100086301000800
:1000500063010008630100086301000863010008F0
:1000600063010008630100086301000863010008E0
:1000700063010008630100086301000863010008D0
:1000800063010008630100086301000863010008C0
:1000900063010008630100086301000863010008B0
:1000A00063010008630100086301000863010008A0
:1000B0006301000863010008630100086301000890
:1000C0006301000863010008630100086301000880
:1000D00063010008052000086301000863010008AF
:1000E0006301000863010008630100086301000860
:1000F0006301000863010008630100086301000850
:10010000630100086301000863010008630100083F
:10011000630100086301000863010008630100082F
:10012000630100086301000863010008630100081F
:10013000DFF810D000F09EF800480047D12C0008EE
:10014000AFF300806019002006488047064800474A
:10015000FEE7FEE7FEE7FEE7FEE7FEE7FEE7FEE777
:10016000FEE7FEE7531A000831010008202A04DBED
:10017000203A21FA02F00021704721FA02F3D04020
:10018000C2F12002914008431946704740EA01033A
:100190009B0703D009E008C9121F08C0042AFAD23D
:1001A00003E011F8013B00F8013B521EF9D2704701
:1001B000D2B201E000F8012B491EFBD270470022A9
:1001C000F6E710B513460A4604461946FFF7F0FF56
:1001D000204610BD30B505462A460B4612F8010BE5
:1001E00013F8014B08B1A042F8D01CB1002802D08E
:1001F0006D1CF1E7284630BD30B5044600200346AB
:1002000000E05B1C934203D2E05CCD5C401BF8D065
:1002100030BD2DE9F05F0546002092469B4688469A
:100220000646814640241BE0284641464746224672
:10023000FFF79CFF53465A46C01A914110D311460E
:100240001846224600F028F82D1A67EB01084F46A1
:1002500022460120002100F01FF817EB00094E4153
:10026000201EA4F10104DFDC484631462A464346FD
:10027000BDE8F09F064C074D06E0E06840F0010342
:1002800094E8070098471034AC42F6D3FFF754FFC8
:10029000A02D0008C02D0008202A04DB203A00FA17
:1002A00002F1002070479140C2F1200320FA03F3CD
:1002B000194390407047FEE730B5044600206518AA
:1002C00004E000BF14F8011B01F0A2FEAC42F9D318
:1002D000002101F09DFEBDE83040002101F098BEF4
:1002E0007047000070B586B002F0FCFA4FF47A76E1
:1002F000012821D0164D782416A000BF02F02EF858
:10030000304600F0A5F972B600F052FA00200090D5
:10031000CDE90105CDE9034004A9684600F0AAF93A
:1003200070B113A0049902F019F800F0F7F962B661
:100330004FF0FF3006B070BD164D782416A0DDE7F3
:100340001CA002F00BF800F0E9F962B60020F1E71A
:100350000080000872756E6E696E67206170703281
:10036000EFBC8C457261736520617070310D0A00BD
:1003700045726173652045727220617420706167F7
:100380006520616464726573733A203078256C78F7
:100390000D0A00000040040872756E6E696E6720D9
:1003A00061707031EFBC8C45726173652061707053
:1003B000320D0A004572617365204F4B0D0A000033
:1003C00072B6FEE706490020C8610648016941F09F
:1003D00004010161016941F04001016170470000C1
:1003E000E800002000200240064A0021D1610649B1
:1003F0000A6942F002020A614861086940F040005F
:1004000008617047E800002000200240044B0022F1
:10041000DA61044A136943F00103136101807047F4
:10042000E80000200020024014480022C168CB06EA
:10043000134904D5CA6942F00202CA611022C36896
:100440005B0705D5CB6943F00103CB6142F00402A1
:10045000C369DB0707D0CB6943F00403CB61C169F3
:1004600021F00101C161A2F58071013901D0C260A2
:100470007047C16921F00101C1617047002002404D
:10048000E800002070B5054600F0A8FA0646114CB9
:1004900009E0681C07D025B100F0A0FA801BA84233
:1004A00001D9032070BDE068C007F2D1E068800682
:1004B00001D52020E060E068C00605D4E069C007EF
:1004C00002D1E068400703D5FFF7AEFF012070BD01
:1004D000002070BD0020024010B590F821100022CD
:1004E000022905D00421816380F82020012010BD5D
:1004F00001680B6823F00E030B6001680B6823F0A2
:1005000001030B6090F84030C46B012101FA03F342
:10051000636080F8211080F82020104610BD000094
:100520002DE9F05F90F821100024022903D0042166
:100530008163012485E001680A6822F00E020A60E6
:1005400001680A6822F001020A603F4E3E4FB21570
:10055000DFF8F4C0DFF8F090DFF8ECA0DFF8E8B0E7
:10056000DFF8E4E00168783F13011502ACF1640C98
:10057000A9F15009AAF13C0AABF1280BAEF1140E17
:100580004FF48018B14227D9B9420ED0614512D03C
:1005900049451DD0514518D0594518D0714501D154
:1005A000424615E0294EB14201D1012210E0274E0A
:1005B0001436B14201D110220AE0244E2836B1424D
:1005C00006D0224A3C32914201D11A4600E02A4626
:1005D0001E49091F0A602BE0B94213D0614517D0AC
:1005E000494522D051451DD059451DD0714501D1F5
:1005F00042461AE0B14202D14FF0807215E0134E2C
:10060000B14201D1012210E0104E1436B14201D1A5
:1006100010220AE00D4E2836B14206D00B4A3C3279
:10062000914201D11A4600E02A46074980394A60C2
:10063000012180F82110002180F82010416B01B1C8
:1006400088472046BDE8F09F800002400804024031
:1006500070B5044600F0C2F90546601C02D004489B
:100660000078044400F0BAF9401BA042FAD370BDF0
:10067000040000202DE9F047054626480F460126D4
:10068000017E01290FD00121814601762868DFF81B
:1006900088804CF25034022808D0A2462046FFF74A
:1006A000F1FEA8B131E00220BDE8F0872046FFF757
:1006B000E9FE08BB0120FFF785FE2046FFF7E2FEBA
:1006C000D8F81010064621F00401C8F810101CE0FC
:1006D0004FF0FF303860AC6811E02046FFF784FE31
:1006E0005046FFF7CFFED8F81010060021F00201A7
:1006F000C8F8101001D03C6007E004F50064D5E9AB
:10070000020100EBC120A042E7D8002189F81810AF
:100710003046C9E7E8000020002002400348016994
:1007200041F080010161002070470000002002407C
:100730002DE9F05F07461C4888460024017E1546D7
:100740001E46012909D00121814601764CF2503A1A
:100750005046FFF797FE18B122E00220BDE8F09F57
:10076000012F02D0022F00D00427D346DFF83CA08F
:10077000220128463146FFF7F9FC81B208EB44001C
:10078000FFF744FE5846FFF77DFEDAF8102022F00E
:100790000102CAF8102018B9641CE4B2BC42E7D3C5
:1007A000002289F81820D9E7E80000200020024044
:1007B000064900200A69120607D5054A4A60054A1B
:1007C0004A600969090600D50120704700200240EF
:1007D00023016745AB89EFCD2DE9F84FDFF8C891CC
:1007E0000024A9F1040B23460F2709F1040AABF1F9
:1007F000040ED1E00125A54006EA0502AA4276D101
:10080000DFF8A8C14E68A6EB0C0866452BD00DDCBE
:10081000032E34D005DC36B3012E19D0022E2FD191
:100820001BE0112E16D0122E2AD119E0B8F5881F20
:1008300019D006DCB8F5803F15D0B8F5801F1FD160
:1008400011E0B8F5001F0ED0B8F5041F18D10AE06A
:10085000CB6815E0CB681B1D12E0CB6808330FE0B6
:10086000CB680C330CE08B682BB1012B4FF00803E5
:1008700003D0456104E0042302E0056100E00023A9
:10088000FF2A01D8064601E000F104064FEA84057C
:1008900001D9A5F12005D6F8008007FA05FC28EA61
:1008A0000C0803FA05F548EA0508C6F800804D680B
:1008B000ED0070D53E4DAE6946F00106AE61AD6902
:1008C00024F0030605F0010500953A4D06EB050CF2
:1008D000DCF80850A607360F07FA06F825EA0805DF
:1008E000DFF8D480404503D14FF0000825E052E006
:1008F000DFF8C880404502D14FF001081DE0DFF865
:10090000C080404502D14FF0020816E0DFF8B48005
:10091000404502D14FF003080FE0DFF8AC804045BE
:1009200002D14FF0040808E0DFF8A080404502D172
:100930004FF0050801E04FF0060808FA06F848EA0B
:100940000508CCF808804D68D9F80060ED024D46E6
:1009500001D5164300E096432E604D68DAF800603A
:10096000AD02554601D5164300E096432E604D6812
:10097000DBF80060AD035D4601D5164300E0964309
:100980002E604D68DEF80060ED03754601D5164314
:1009900000E096432E60641C0A681646E2407FF42D
:1009A00029AFBDE8F88F00000804014000001110D5
:1009B000001002400000014000080140000C01400E
:1009C000001001400014014000180140001C0140CB
:1009D0000AB1016170470904FBE700000148806823
:1009E000704700000400002002488168027811442A
:1009F0008160704704000020074810B5016841F08D
:100A000010010160032000F075F80F2000F006F8D7
:100A100000F024F8002010BD0020024070B50D4DFC
:100A200004464FF47A712878B1FBF0F00A4909685E
:100A3000B1FBF0F000F0DCFA48B9102C07D200222C
:100A40002146501E00F036F800206C6070BD012079
:100A500070BD000004000020100000200C4808B504
:100A6000816941F001018161816901F00101009119
:100A7000C16941F08051C161C06900F080500090AF
:100A80000448416821F0E06141F00071416008BD17
:100A90000010024000000140002809DB00F01F02A6
:100AA000012191404009800000F1E020C0F80011D0
:100AB00070470000F0B40E4B1B680C46C3F30223D2
:100AC000C3F10705042D00D90425191D072901D2FA
:100AD000002300E0DB1E012606FA05F1491E214035
:100AE00099409E40761E16403143F0BC01F046BC52
:100AF0000CED00E0064900F0070208684FF6FF031E
:100B0000184040EA0220034A104308607047000082
:100B10000CED00E00000FA052DE9F0470F46050056
:100B200061D0434E306800F00700B84209D2306807
:100B300020F0070038433060306800F00700B8420A
:100B400051D128683B4C810712D5400703D5606816
:100B500040F4E06060602878000703D5606840F4E6
:100B6000605060606068A96820F0F0000843606031
:100B70002878C00728D06868012810D0216802288A
:100B800010D0890700292EDA616821F003010143A2
:100B90006160FFF723FF804641F288390DE021684C
:100BA0008903EFE78901EDE7FFF718FFA0EB0801E4
:100BB000494502D90320BDE8F0876068696800F004
:100BC0000C00B0EB810FEFD1306800F00700B842A5
:100BD0000BD9306820F0070038433060306800F0EF
:100BE0000700B84201D00120E5E72878400705D585
:100BF0006068E96820F4E0600843606028780007D6
:100C000006D56068296920F4605040EAC100606040
:100C100000F038F86168084AC1F30311515CC8401C
:100C20000649086006480068FFF7F8FE0020C2E7A2
:100C30000020024000100240862D00081000002015
:100C4000080000200448054900684968044AC1F3C7
:100C50000221515CC8407047100000200010024083
:100C6000962D00080448054900684968044AC1F304
:100C7000C221515CC84070471000002000100240A3
:100C8000962D00080E4A51680E4801F00C03042B03
:100C900011D0082B0FD10C48C1F38343C903C05CAA
:100CA0000AD55168084AC1F34041921E515C054A79
:100CB0005043B0FBF1F070470449484370470000CF
:100CC0000010024000127A00762D000800093D0055
:100CD0002DE9F84F040070D02078C04DC00749D0EE
:100CE0006868C0F38100012807D06868C0F38100FC
:100CF000022809D16868C00306D52868800339D561
:100D000060680028E7D035E06068B0F5803F0BD020
:100D100010B1B0F5A02F11D0286820F480302860E1
:100D2000286820F4802002E0286840F480302860A1
:100D3000606890B1FFF752FE06460AE0286840F46A
:100D400080202860F0E700BFFFF748FE801B642882
:100D500073D828688003F7D50CE0FFF73FFE0646FE
:100D600005E000BFFFF73AFE801B6428F0D8286832
:100D70008003F7D420789A4E80074FF001094FF096
:100D8000000839D5686810F00C0F07D06868C0F308
:100D90008100022809D16868C00306D4286880074A
:100DA00014D52069012808D110E02069B0B1C6F837
:100DB0000090FFF713FE074605E00AE1FFF70EFE7D
:100DC000C01B0228C4D828688007F7D52868616945
:100DD00020F0F80040EAC10028600DE0C6F800806D
:100DE000FFF7FCFD074604E0FFF7F8FDC01B0228F3
:100DF00023D828688007F7D4207800072CD57948B5
:100E0000A169D9B1C0F80090FFF7E8FD074604E0FA
:100E1000FFF7E4FDC01B02280FD8686A8007F7D5EA
:100E200071484FF4FA510068B0FBF1F0009000BF38
:100E30000098411E0091FAD20EE080E0C0F80080D8
:100E4000FFF7CCFD074604E0FFF7C8FDC01B0228F2
:100E500075D8686A8007F7D42078400760D5E869BC
:100E60000027C00008D4E86940F08050E861E869D4
:100E7000012700F0805000905C480168C90513D438
:100E80000168834641F480710160FFF7A7FD824647
:100E900006E000BFFFF7A2FDA0EB0A0064284ED8D1
:100EA000DBF80000C005F5D5E06801280AD008B1DC
:100EB000052813D0286A20F001002862286A20F053
:100EC000040002E0286A40F001002862E06841F274
:100ED000883B98B1FFF782FD82460BE0286A40F01C
:100EE00004002862EEE700BFFFF778FDA0EB0A01DF
:100EF00059455AD8286A8007F6D50CE0FFF76EFDF1
:100F0000824605E0FFF76AFDA0EB0A0159454CD87F
:100F1000286A8007F6D41FB1E86920F08050E861A4
:100F2000E06988B36968C1F38101022944D00228CD
:100F3000C6F8608004D0FFF751FD044638E034E085
:100F4000FFF74CFD074604E0FFF748FDC01B0228F1
:100F50002BD828688001F7D4206AB0F5803F05D1EE
:100F60006868A16820F4003008436860D4E908018B
:100F70000843696821F4741108436860C6F86090FA
:100F8000FFF72CFD044606E025E000BFFFF726FD35
:100F9000001B022809D828688001F7D51BE000BF94
:100FA000FFF71CFD001B022802D90320BDE8F88FC3
:100FB00028688001F4D40EE00128F7D06868226A1E
:100FC00000F48031914204D1616A00F470108842CB
:100FD00001D00120EAE70020E8E70000001002400D
:100FE0000000424280044242100000200070004095
:100FF00010B5401EB0F1807F01D3012010BD4FF02D
:10100000E02460610F21601701F0B8F90020A061B1
:1010100007202061002010BD4FF0E020016921F081
:1010200002010161704770477047000070B50446C7
:1010300020680C3050E8001F21F4907140E8001245
:10104000002AF5D12068143050E8001F21F001017A
:1010500040E80012002AF5D1206B012809D1206850
:101060000C3050E8001F21F0100140E80012002A67
:10107000F5D1206840694FF0200241064FF0000092
:1010800015D52168143151E8003F23F0400341E8B1
:101090000035002DF5D1E16B49B109484863E06B9B
:1010A000FFF73EFA50B1E06B416B884706E0E08500
:1010B00084F8422020632046FFF7B6FF002070BD71
:1010C0007D1D000870470000F8B5016804460868F7
:1010D000CA684B6910F00F0F4FF0000559D003F0AC
:1010E000010602F49077374365D0C10705D0D105DA
:1010F00003D5616C41F001016164410705D5D90751
:1011000003D0616C41F002016164810705D5D90704
:1011100003D0616C41F004016164010707D502F05E
:101120002001314303D0616C41F008016164616CBE
:1011300000293AD0800604D5900602D5204600F05A
:101140004FFE20684069616CC0F38010090700D42D
:1011500060B3204600F01DFE20684069400621D59E
:101160002068143050E8001F21F0400140E80012D0
:10117000002AF5D1E06BA8B16D494163E06BFFF740
:10118000CFF9002811D0E06B416B01B0BDE8F04011
:10119000084783060FD593060DD52046BDE8F840D5
:1011A00000F01EBE2046FFF78DFFF8BD2046FFF77A
:1011B00089FF6564F8BD266B2023012E7CD1C6060D
:1011C0007AD5D60678D508684868009048694FF007
:1011D0000206400640D5E16B086840680004000C38
:1011E000E8D0A28D8242E5D9E085886920282DD0FB
:1011F00020680C3050E8001F21F4807140E8001294
:10120000002AF5D12068143050E8001F21F00101B8
:1012100040E80012002AF5D12068143050E8001F81
:1012200021F0400140E80012002AF5D184F8423054
:10123000256320680C3050E8001F21F0100140E8C1
:101240000012002AF5D1E06BFFF746F96663A08D26
:10125000E18D401A81B22AE0A08DE18D401A81B261
:10126000E08D0028A6D00029A4D022680C3252E8D4
:10127000000F20F4907042E80007002FF5D120689D
:10128000143050E8002F22F0010240E80027002F20
:10129000F5D184F84230256320680C3050E8002FE7
:1012A00022F0100240E80023002BF5D166632046AF
:1012B000FFF7B9FEF8BDFFE705062BD5150629D5C2
:1012C00094F841002128F5D1A068B0F5805F01D1E4
:1012D0002069B0B1206A411C216221680078486011
:1012E000E08C401E0004000CE084E3D12068C1685B
:1012F00021F08001C1602068C16841F04001C160F7
:10130000D8E7206A0088C0F308004860206A801C83
:101310002062E5E74006CDD55006CBD5CA68204609
:1013200022F04002CA6084F8413000F055F9C1E76C
:101330006D1D000870B5040004D094F8410000252C
:1013400010B106E0012070BD84F84050204600F046
:1013500023F8242084F841002068C16821F400515A
:10136000C160204600F09EFD2068016921F4904193
:1013700001612068416921F02A0141612068C1684A
:1013800041F40051C1606564202084F8410084F874
:1013900042006563002070BD30B585B00024009424
:1013A0000194029403940068184988422CD118488B
:1013B000816941F480418161816901F48041049136
:1013C000816941F0040181618069124D00F00400DF
:1013D00004904FF4007000900220019003200390CD
:1013E00069462846FFF7F8F92815CDE90004694653
:1013F00028460294FFF7F0F9002211462520FFF756
:1014000059FB2520FFF748FB05B030BD00380140EF
:1014100000100240000801402DE9F84F044690F802
:1014200042009A4616460D46202802D00220BDE80A
:10143000F88FB5B1AEB100206064222184F842106B
:101440002063FFF7CBFAA6858146E685A0684FF4B6
:1014500080582027404501D1206920B12E46002523
:1014600029E00120E3E7002625E04B460022202169
:101470002046CDF800A000F08CFD18B184F8427031
:101480000320D4E726B1A06840451AD038B108E05F
:1014900020684068C0F3080025F8020B08E02069C6
:1014A00078B12068406800F07F0000BF06F8010BAB
:1014B000E08D401EE085E08D0028D6D184F8427092
:1014C000B5E720684068F1E790F84230202B01D062
:1014D0000220704721B11AB10023036300F03EBD22
:1014E0000120704770B500680F4988421BD1104C2D
:1014F0000E4E00256188705C0D2806D00A2804D0A5
:101500007F2907D2491C618005E021B17554074845
:1015100000F074F9658060883118BDE870400122E0
:101520000448FFF7D1BF70BD003801402000002003
:1015300000000020A00000202DE9F843044690F8A8
:101540004100984616460D46202802D00220BDE8EC
:10155000F88385B17EB100206064212084F84100C9
:10156000FFF73CFAA6848146E684A0682027B0F500
:10157000805F02D003E00120E9E7206910B12E4628
:1015800000250EE000260CE08021204600F001FD41
:10159000A8B9C6B116F8010B21684860E08C401E5E
:1015A000E084E08C4B464FF00002CDF8008000282C
:1015B000EAD14FF04001204600F0EBFC40B184F846
:1015C00041700320C3E735F8020BC0F30800E3E7DE
:1015D00084F841700020BAE77047FEE72DE9F0413A
:1015E000D0B001F071F9022803D001F07BF9012895
:1015F00049D0294D2C686E6828483118B1F5703FE4
:1016000001D2A9190E1833462246294624A000F01B
:10161000A5FEA4F10050B0F5803F37D2B6F1006FBF
:1016200034D32D48864231D272B62C480560BFF3C0
:101630004F8FBFF36F8F84F308884FF480773C4659
:101640004FF480682819402240A901F0D9FA40AA35
:10165000214623A000F082FE40344445F2D33A46AE
:101660006946284601F0CCFA22A000F077FE10224D
:101670003946684601F0CEF825A000F06FFEB0476D
:1016800050B0BDE8F081054D6D42B3E750B025A0E4
:10169000BDE8F04100F062BE004004080080FFF7A2
:1016A0004A756D702074617267657420737461721D
:1016B000743D30782530386C7820737461636B3DED
:1016C00030782530386C782072657365743D3078D9
:1016D0002530386C780D0A000000080808ED00E09D
:1016E000415050322B3078256C783A2025730D0A02
:1016F000000000003D3D3D20415050322046554CF9
:101700004C2044554D50203D3D3D0D0A0000000049
:101710003D3D3D20454E442044554D50203D3D3DEE
:101720000D0A00004A756D702061626F7274656405
:101730003A20696E76616C696420737461636B2F03
:10174000726573657420766563746F720D0A0000AC
:1017500070B586B000241748009401940294039455
:10176000816941F004018161816901F00401049102
:10177000816941F00801816180690F4E00F0080025
:101780000490002201213046FFF722F90125CDE91E
:101790000054694609480294FFF71EF80220CDE97B
:1017A00002400095694601953046FFF715F806B0EE
:1017B00070BD000000100240000C01400008014014
:1017C0000C4810B50A4901604FF4E1314160002135
:1017D00081600C22C160C0E904128161C161FFF720
:1017E000A9FD002803D0BDE81040FEF7E9BD10BDFB
:1017F00000380140A0000020FEE7FEE710B50446D7
:1018000000290ED007A1FEF7E5FC002809D006A0AC
:1018100000F0A4FD21460FA000F0A0FD0F4901201B
:10182000087010BD4F544100415050A3BACAD5B5FD
:10183000BDC9FDBCB6D6B8C1EEA3ACD7BCB1B8C764
:10184000D0BBBBC9FDBCB6C4A3CABD2E2E2E0D0A8B
:1018500000000000646174613A25730000000020FC
:1018600070472DE9F84300240F4606460C60904669
:101870000121684600F058F805001FD19DF80000CE
:1018800018281FD006DC01280BD002280BD0042812
:1018900004D104E0412825D0612823D001253070EF
:1018A0000CE0802401E04FF480643070211D42463A
:1018B000B01C00F039F8050016D0002428463C6022
:1018C000BDE8F88342460121684600F02DF818B9BA
:1018D0009DF80000182803D001259DF80000DEE7E0
:1018E0000224DCE70225DAE7F178B07881F0FF0125
:1018F00088420AD130190179407900EB012821464C
:10190000301DFEF7D9FC4045D8D000240125D5E78D
:101910007047000001B56423012269460148FFF7C2
:101920000BFE08BDA000002013460A4601460148F0
:10193000FFF772BDA0000020F0B5054600242A780C
:1019400020462346302A2ED16A78782A01D0582A98
:1019500029D102241CE000BFA2F14106052E07D9BF
:10196000A2F16107052F03D91136092E04D913E01E
:10197000A2F13007092F01D8303A04E0052E01D832
:10198000373A00E0573A641C02EB03130B2C04D2E5
:101990002A5D002AE0D103E000202A5D002A01D15F
:1019A00001200B60F0BD2A5D62B16B2A01D04B2A89
:1019B00002D10CB19B0205E06D2A01D04D2A04D161
:1019C0001CB11B0501200B600AE0A2F13006092EB4
:1019D0000CD803EB83036FF02F0606EB430313448D
:1019E000641C0B2CDED20128DDD1F0BD0020F0BD3F
:1019F000FEF7FABF30B58FB028216846FEF7DFFB4F
:101A000014210AA8FEF7DBFB01210804CDE9001030
:101A10000024029402250491CDE907504FF4E01010
:101A200009906846FFF754F908B172B6FEE70F2037
:101A3000CDE90A054FF48060CDE90C4002210AA8E7
:101A40000E94FFF769F8002801D072B6FEE70FB0D8
:101A500030BD704708B538A000F080FC42A000F00F
:101A60007DFC4BA000F07AFC5448FFF7DFFA5348A6
:101A7000006800E0416801688906FBD400200090FE
:101A8000684600F0D7FA010013D04DA000F066FCC4
:101A90004FF4FA70FEF7DCFDBFF34F8F5248016838
:101AA000524A01F4E06111430160BFF34F8F00BF60
:101AB000FDE74FA000F052FC002001F033F80028B1
:101AC00023D054A000F04AFC00F00CFF01281ED0E7
:101AD000012000F0F5FF00282AD054A000F03EFCC1
:101AE000012000F0BBFF002824D056A000F036FCF7
:101AF0005BA000F033FC4FF47A70FEF7A9FD72B6DC
:101B0000FFF78AFAFFF76AFDFEE761A0DAE7022035
:101B100000F0D6FF40B166A000F020FC022000F0EB
:101B20009DFF18B168A0E1E76EA0F5E775A0DDE7BD
:101B30007DA0D3E784A0D9E70D0A3D3D3D3D3D3D65
:101B40003D3D3D3D3D3D3D3D3D3D3D3D3D3D3D3DC5
:101B50003D3D3D3D3D3D3D3D3D3D3D3D3D3D3D3DB5
:101B60003D3D3D0D0A00000020202020204941502D
:101B700020426F6F746C6F61646572202D20596D07
:101B80006F64656D20526563656976650D0A0000B6
:101B90003D3D3D3D3D3D3D3D3D3D3D3D3D3D3D3D75
:101BA0003D3D3D3D3D3D3D3D3D3D3D3D3D3D3D3D65
:101BB0003D3D3D3D3D3D3D3D3D0D0A00A000002029
:101BC000596D6F64656D2072656365697665206621
:101BD00061696C65642C206572726F7220636F643A
:101BE000653A2025640D0A000CED00E00400FA05BA
:101BF0004669726D776172652072656365697665A5
:101C000064207375636365737366756C6C79210DFD
:101C10000A0000006F746120666C616720636C6568
:101C20006172206661696C0D0A00000073657420A2
:101C3000617070312072756E6E696E6720666169C1
:101C40006C0D0A007365742061707031206E6578C8
:101C5000742072756E206661696C0D0A00000000C8
:101C60004F544120666C616720636C6561726564E6
:101C70002E204A756D7020746F206E65772061701C
:101C8000706C69636174696F6E2E2E2E0D0A0000F0
:101C90006F746120666C616720636C65617220738C
:101CA00075636365737366756C6C790D0A0000006B
:101CB00073657420617070322072756E6E696E6724
:101CC000206661696C0D0A00736574206170703262
:101CD000206E6578742072756E206661696C0D0ADD
:101CE0000000000073657420617070322072756EA0
:101CF0006E696E67207375636365737366756C6C6C
:101D0000790D0A007365742061707032206E6578F9
:101D1000742072756E207375636365737366756C7A
:101D20006C790D0A000000007365742061707031D9
:101D30002072756E6E696E67207375636365737369
:101D400066756C6C790D0A00736574206170703172
:101D5000206E6578742072756E2073756363657389
:101D60007366756C6C790D0A0000000010B5406A4E
:101D70000021C185C184FFF7A5F910BD10B5406AE7
:101D80000021C185202280F842200163FFF74CF931
:101D900010BD01680C3151E8002F22F4907241E827
:101DA0000023002BF5D10168143151E8002F22F0F7
:101DB000010241E80023002BF5D1016B012909D173
:101DC00001680C3151E8002F22F0100241E8002395
:101DD000002BF5D1202180F84210002101637047CB
:101DE00008B590F84210222901D0022008BD82686F
:101DF0004FF480539A4201D1016921B1816A9A421C
:101E00001BD04AB10AE00268816A5268C2F3080234
:101E10000A80816A891C08E0026972B1026852680E
:101E200002F07F020A70816A491C8162C18D491EDD
:101E30000904090CC18503D01BE002685268F1E770
:101E40000168CA6822F02002CA600168CA6822F4E8
:101E50008072CA6001684A6922F001024A61202149
:101E600080F8421000214163026B012A03D0FFF782
:101E700039FB002008BD016301680C3151E8002FD7
:101E800022F0100241E80023002BF5D101680A6816
:101E9000D20602D50A6849680091818DFFF7C3F820
:101EA000E7E7000070B5044600680169E26821F4C4
:101EB0004051114301612169A068084361690843E9
:101EC0002168CA6841F20C639A430243CA602068E1
:101ED0004169A26921F44071114341611E492068A2
:101EE000884202D1FEF7BEFE01E0FEF7ABFE00EB3A
:101EF000C00101EB0012606864218000B2FBF0F3C6
:101F0000B3FBF1F36FF018067343B2FBF0F5B2FBCD
:101F1000F0F605EB8305322303EB0515B5FBF1F570
:101F2000B6FBF1F605F0F00505EB0615B2FBF0F691
:101F3000B2FBF0F0B0FBF1F06FF01802504306EB8B
:101F4000800003EB0010B0FBF1F0216800F00F00FF
:101F50002844886070BD000000380140816282859D
:101F6000C28500214164222180F84210016921B11B
:101F70000168CA6842F48072CA6001684A6942F026
:101F800001024A610068C16841F02001C16000207F
:101F900070472DE9F843984617460D460446089EBB
:101FA00024E0701C22D0FEF719FDA0EB0800B0421F
:101FB0001AD8CEB12068C168490717D5802D15D031
:101FC000402D13D00168C94309070FD401680025CB
:101FD000406800902046FFF7DCFE0820606484F82B
:101FE00040500120BDE8F8830320FBE7206800682B
:101FF00035EA000004D00020B842D2D00020F1E73A
:102000000120F9E70148FFF75FB80000A0000020B9
:1020100041F4807141F2210240004900CB0500D516
:10202000401CC30300D55040CB03F5D580B27047A8
:10203000FEE700002DE9F14F002094B00746009024
:102040000646834609900A900B900C908DF8480044
:102050000446954D00F046FC01464FF4703A0129C4
:1020600001D0A84617E1DFF8448214E14FF00009DF
:102070008F49CDF818904D46C1F80090C1F80490F2
:1020800005E100BF4FF47A7207A98A48FFF7E9FB20
:1020900060B102287DD0BBF1000F00D0761C052E68
:1020A00078D91820FFF736FC1820EEE007980026B4
:1020B000C0B1022810D07F48494682787EA000F047
:1020C0004DF97C4809F0FF018078814219D080A049
:1020D00000F044F91520D8E05FF00600FFF71AFC85
:1020E0000224D4E07CA000F039F90620FFF712FCAE
:1020F0004320FFF70FFC4F20FFF70CFC01250024C5
:10210000BBE0B9F1000F5AD0DFF8A4B1764A6949B3
:10211000DBF80000091D10448022FEF737F8DBF8D9
:1021200000008030CBF800005FEA097002D0069909
:10213000894535D10020CBF800006CA000F00EF9E5
:10214000DBF804104FF4007208EBC120664900F080
:102150008DFD5A20FEF77CFADBF804104FF4006284
:1021600008EBC120654900F04BFD4FF400625E4969
:102170006248FEF741F8DBF80410034608EBC12281
:102180005FA000F0EBF8DBF804004FF40061401CA6
:1021900001E074E078E0CBF804005348FEF70FF854
:1021A00000990798814201D3081A00905FF0060059
:1021B000FFF7B0FB09F101094FF0010B67E056A0F2
:1021C00000F0CCF83B480179F1B3002100F206435E
:1021D000001D02E05A54401C491C02780AB14029F3
:1021E000F8D34FF0000C03F801C0614609AB401C66
:1021F00002E05A54401C491C0278202A01D01029C0
:10220000F7D303F801C003A91846FFF795FB03991C
:102210000AF10100814211D918208DF848004FF4CD
:1022200080142346012212A93F48FFF785F923466F
:10223000012212A93C48FFF77FF90524FEF752F866
:1022400014980399016000E010E003990091C80917
:102250000690400602D00698401C069033A000F07D
:102260007DF80620FFF756FB4320A1E733A000F0DE
:1022700075F80620FFF74EFB0125012707E018201F
:10228000FFF748FB182029E74320FFF743FB55EAF7
:1022900004003FF4F7AE57EA04003FF4E7AE15B090
:1022A0002046BDE8F08F00000080000800400408D0
:1022B00014000020181100207061636B3A2564201F
:1022C000796D6F645F7061636B25640D0A000000B7
:1022D0002D2D2D3C0D0A0000CAFDBEDDB4ABCAE4B5
:1022E000CDEAB3C90D0A00001801002077726974A5
:1022F000696E6720706167650D0A0000180900208B
:10230000636E743A256420616464723A257872655C
:10231000743A25640D0A0000466972737420706176
:10232000636B0D0A00000000A000002046696C6588
:102330002053697A653A25640D0A000046696C6588
:1023400020686561646572207061636B65742069E3
:102350007320656D7074790D0A0000000FB4054B91
:1023600010B503A9044A029800F028F810BC5DF8E3
:1023700014FB0000B12800081C0000200907090E0A
:10238000002804DB00F1E02080F80014704700F022
:102390000F0000F1E02080F8141D704702E008C82B
:1023A000121F08C1002AFAD170477047002001E0CF
:1023B00001C1121F002AFBD1704700002DE9FF4F19
:1023C0008DB00F460546002606E025280BD0DDE936
:1023D0000F1290476D1C761C28780028F5D111B09B
:1023E0003046BDE8F08F0024A246A1460122E9490B
:1023F00000E0044315F8013F203B02FA03F00842D5
:10240000F7D128782A2810D06FF02F022878A0F171
:102410003001092914D80AEB8A0102EB410144F08A
:10242000020400EB010A6D1CF0E701CF5FEA000A2D
:1024300003D544F40054CAF1000A44F002046D1CB0
:1024400028782E2817D115F8010F44F004042A2803
:102450000ED06FF02F022878A0F1300109290AD898
:1024600009EB890102EB410100EB01096D1CF2E768
:1024700057F8049B6D1C28786C280FD006DC4C287C
:1024800017D068280DD06A2814D104E0742810D021
:102490007A280FD10DE044F400140AE044F48014CB
:1024A00001E044F440146978814202D104F58014BB
:1024B0006D1C6D1C28786E281ED00CDC632830D073
:1024C00004DC00288BD0582811D19FE0642867D005
:1024D00069280CD164E073282DD004DC6F2872D0F9
:1024E000702804D194E075286ED078286DD0DDE98D
:1024F0000F129047761C4BE1C4F30250022806D01D
:10250000032809D0042801CF09D0066040E101CF9B
:10251000F117C0E900613BE101CF068038E10670A8
:1025200036E117F8040B8DF8000000208DF801004B
:10253000EB46012003E057F804BB4FF0FF30610782
:102540004FF0000102D40DE008F101018846494531
:102550000FDA8045F8DB1BF808100029F4D108E0F9
:1025600008F1010188468142FADB1BF808100029B6
:10257000F6D1DDE90F23AAEB08008146214600F0E1
:1025800031F9304400EB080604E0DDE90F121BF8D6
:10259000010B9047B8F10108F7D221464846F2E016
:1025A0000A21C4F302524FF0000B0891022A04D012
:1025B00001CFC117032A09D00AE0FF1D27F0070742
:1025C000F7E8020108E02CE01EE01FE000B2C117AE
:1025D000042A01D140B2C117021E71F1000206DACD
:1025E0000023D0EB030063EB01012D2202E0220562
:1025F00004D52B228DF82420012203E0E20701D02C
:102600002022F7E7904653E00A210BE0102109E071
:1026100010214FF0000B44F004044FF0080908911A
:1026200003E008214FF0000B0891C4F30252022A84
:1026300004D001CF0021032A06D006E0FF1D27F0B9
:102640000707F7E8020103E080B2042A00D1C0B214
:102650004FF0000822072BD52A78702A07D0DDF822
:1026600020C08CF0100C5CEA0B0C05D00EE0402270
:102670008DF82420012208E050EA010306D030231F
:102680008DF824308DF8252002229046089B83F097
:10269000080353EA0B030BD150EA010201D1620790
:1026A00006D530228DF824204FF00108A9F1010948
:1026B0002A78582A04D038A20B9208AA0A920BE072
:1026C0003AA2F9E75B46089AFDF7A3FD0B9B9B5CDA
:1026D0000A9A521E0A92137050EA0102F2D10A9825
:1026E000ADEB000000F1200B600702D524F480342C
:1026F00001E04FF00109D94502DDA9EB0B0000E034
:10270000002000EB0B0141440890AAEB010AE00312
:1027100006D4DDE90F232146504600F063F8064455
:102720004FF0000908E009A911F80900DDE90F12CE
:10273000904709F10109761CC145F4DBE0030CD593
:10274000DDE90F232146504600F04CF8064404E032
:10275000DDE90F1230209047761C0899481E08903A
:102760000029F5DC08E00A980A990078491C0A91CA
:10277000DDE90F129047761CBBF10001ABF1010BB4
:10278000F1DC21465046DDE90F2300F019F806443C
:102790006D1C21E6092801003031323334353637DB
:1027A000383961626364656600000000303132339D
:1027B000343536373839414243444546000000003D
:1027C0002DE9F041044600251E461746880404D42E
:1027D00005E039462020B0476D1C641EF9D5284617
:1027E000BDE8F0812DE9F041044600251E469046E3
:1027F000C80301D5302700E02027880404D505E070
:1028000041463846B0476D1C641EF9D52846BDE8E0
:10281000F08100002DE9F04116460F468046002465
:1028200032E021461AA0FFF799FD002511E0680764
:1028300002D119A0FFF792FD6019B84205D218F82D
:10284000001016A0FFF78AFD02E016A0FFF786FD34
:102850006D1CB542EBD310A0FFF780FD00250DE005
:102860006019B84209D218F80010A1F120005F28C1
:1028700000D32E210CA0FFF771FD6D1CB542EFD3E4
:102880000AA0FFF76BFD3444BC42CAD3BDE8F08117
:10289000253038583A2000002000000025303258FA
:1028A0002000000020202000256300000A00000016
:1028B00013B54FF6FF73012269460248FEF73CFE4E
:1028C00000981CBDA000002010B500F027F810B142
:1028D0004FF0FF3010BD024890F90A0010BD000013
:1028E0000801002010B500F019F810B14FF0FF30CA
:1028F00010BD024890F9090010BD00000801002039
:1029000010B500F00BF810B14FF0FF3010BD0248C9
:1029100090F9080010BD00000801002010B5102239
:102920001249134800F06CF9104C2078AA2808D1FD
:102930006078BB2805D1A078CC2802D1E078DD28CA
:1029400004D00CA0FFF70AFD012010BD0B210748A1
:1029500000F04AF90146E07A884204D00AA0FFF765
:10296000FDFC022010BD002010BD00000801002069
:1029700000600008666C617368206D6167696320A0
:102980006572726F720D0A00666C6173682063680D
:1029900065636B73756D206572726F722C63686509
:1029A000636B73756D3A25640D0A000010B5FFF76F
:1029B000B5FF002813D00BA0FFF7D0FC00F0E0F823
:1029C000FFF7ACFF40B14FF47A7411A0FFF7C6FCDB
:1029D0002046FDF73DFEF8E715A0FFF7BFFC0020FD
:1029E00010BD0000506172616D20736563746F7279
:1029F00020696E76616C69642C2077726974696EE7
:102A0000672064656661756C742E2E2E0D0A0000B9
:102A10004661696C656420746F20696E697420700A
:102A20006172616D20736563746F72210D0A00001D
:102A3000506172616D20736563746F7220696E6995
:102A40007469616C697A6564207375636365737317
:102A500066756C6C792E0D0A0000000070B5044696
:102A6000FFF75CFF28B10AA0FFF778FC4FF0FF30BA
:102A700070BD114D0B212846AC7200F0B5F8E8721C
:102A8000042229460D4800F0CAF8002070BD00005D
:102A9000666C617368206765742072756E6E696E0E
:102AA0006720666C617368206E756D626572206563
:102AB00072726F720D0A00000801002000600008A9
:102AC00070B50446FFF72AFF28B10AA0FFF746FCBD
:102AD0004FF0FF3070BD114D0B2128466C7200F095
:102AE00083F8E872042229460D4800F098F8002087
:102AF00070BD0000666C6173682067657420727534
:102B00006E6E696E6720666C617368206E756D62AB
:102B10006572206572726F720D0A00000801002054
:102B20000060000870B50446FFF7F8FE28B10AA05F
:102B3000FFF714FC4FF0FF3070BD0F4D0B212846FE
:102B40002C7200F051F8E872042229460B4800F07C
:102B500066F8002070BD0000666C617368206765D0
:102B6000742075706461746520666C61672065729D
:102B7000726F720D0A00000008010020006000085A
:102B80001FB5AA208DF80000BB208DF80100CC20D5
:102B90008DF80200DD208DF8030000208DF808007C
:102BA00002218DF809108DF80A1001908DF80B00A4
:102BB00003900B21684600F017F88DF80B000146D2
:102BC00004A0FFF7CBFB04226946064800F027F873
:102BD0001FBD0000636865636B73756D3A25640DF6
:102BE0000A00000000600008034610B500200246FD
:102BF00003E09C5C521C2044C0B28A42F9D310BD51
:102C000010B5B2F5006F01D9012010BD002302E01C
:102C1000C45CCC545B1C9342FAD3002010BDF0B5C9
:102C200085B0002416460F46054600940194029490
:102C30000394FDF7BDFD012002950094CDE9030446
:102C400004A96846FDF716FD08E057F8242005EBB7
:102C5000840100230220FDF76BFD641CB442F4D311
:102C6000FDF75CFD05B00020F0BD0000F0B585B0BB
:102C7000002416460F4605460094019402940394DE
:102C80000494FDF795FD0120CDE9025004A90094BC
:102C90006846FDF7EFFC20B1FDF740FD012005B0CF
:102CA000F0BD00240EE000BF57F8242005EB84019E
:102CB00000230220FDF73CFD18B1FDF72FFD022097
:102CC000EDE7641CB442EFD3FDF728FD0020E6E7F2
:102CD000FDF792FEFEF78EFEFEF73AFDFEF770FD61
:102CE000FFF764FE08B108A00AE0FFF709FE01281B
:102CF00005D00FA0FFF732FBFEF770FCFEE713A034
:102D0000FFF72CFBFEF7A6FE506172616D20736524
:102D100063746F72206572726F722C20656E7465B9
:102D20007220757067726164652E2E2E0D0A000088
:102D30004A756D7020746F206170706C6963617486
:102D4000696F6E2E2E2E0D0A000000004F54412098
:102D5000666C6167207365742C20656E74657220E3
:102D600075706772616465206D6F64652E2E2E0D1F
:102D70000A000000010202030405060708090A0B05
:102D80000C0D0E0F101000000000000000000102EA
:102D90000304060708090000000001020304000004
:102DA000C02D000800000020200000009C23000827
:102DB000E02D00082000002040190000AC2300088E
:102DC00000000000010000001000000000000000F2
:102DD00000127A0000000000000000000000000067
:0400000508000131BD
:00000001FF
