:020000040800F2
:10800000D004002049810008EB9300083F9300084A
:10801000E99300087B8200085597000800000000E3
:108020000000000000000000000000006394000851
:108030007D8200080000000061940008659400083B
:108040006381000863810008638100086381000880
:108050006381000863810008638100086381000870
:108060006381000863810008638100086381000860
:108070006381000863810008638100086381000850
:108080006381000863810008638100086381000840
:108090006381000863810008638100086381000830
:1080A0006381000863810008638100086381000820
:1080B0006381000863810008638100086381000810
:1080C0006381000863810008638100086381000800
:1080D00063810008499700086381000863810008F4
:1080E00063810008638100086381000863810008E0
:1080F00063810008638100086381000863810008D0
:1081000063810008638100086381000863810008BF
:1081100063810008638100086381000863810008AF
:10812000638100086381000863810008638100089F
:10813000DFF810D000F080F800480047019E0008EA
:10814000AFF30080D004002006488047064800476F
:10815000FEE7FEE7FEE7FEE7FEE7FEE7FEE7FEE7F7
:10816000FEE7FEE7C794000831810008202A04DBFF
:10817000203A21FA02F00021704721FA02F3D040A0
:10818000C2F120029140084319467047D2B201E083
:1081900000F8012B491EFBD270470022F6E710B50C
:1081A00013460A4604461946FFF7F0FF204610BD65
:1081B00030B505462A460B4612F8010B13F8014B61
:1081C00008B1A042F8D01CB1002802D06D1CF1E724
:1081D000284630BD2DE9F05F0546002092469B46BB
:1081E00088460646814640241BE0284641464746CD
:1081F0002246FFF7BBFF53465A46C01A914110D39F
:1082000011461846224600F029F82D1A67EB01089E
:108210004F4622460120002100F020F817EB00090C
:108220004E41201EA4F10104DFDC484631462A46B7
:108230004346BDE8F09F0000064C074D06E0E068AD
:1082400040F0010394E8070098471034AC42F6D39D
:10825000FFF772FF0CA000082CA00008202A04DB06
:10826000203A00FA02F1002070479140C2F1200349
:1082700020FA03F3194390407047FEE7704772B647
:10828000FEE7000006490020C8610648016941F088
:1082900004010161016941F0400101617047000082
:1082A000A000002000200240064A0021D1610649BA
:1082B0000A6942F002020A614861086940F0400020
:1082C00008617047A000002000200240044B0022FB
:1082D000DA61044A136943F00103136101807047B6
:1082E000A00000200020024014480022C168CB06F4
:1082F000134904D5CA6942F00202CA611022C36858
:108300005B0705D5CB6943F00103CB6142F0040262
:10831000C369DB0707D0CB6943F00403CB61C169B4
:1083200021F00101C161A2F58071013901D0C26063
:108330007047C16921F00101C1617047002002400E
:10834000A000002070B5054600F0A8FA0646114CC2
:1083500009E0681C07D025B100F0A0FA801BA842F4
:1083600001D9032070BDE068C007F2D1E068800643
:1083700001D52020E060E068C00605D4E069C007B0
:1083800002D1E068400703D5FFF7AEFF012070BDC2
:10839000002070BD0020024010B590F8211000228E
:1083A000022905D00421816380F82020012010BD1E
:1083B00001680B6823F00E030B6001680B6823F063
:1083C00001030B6090F84030C46B012101FA03F304
:1083D000636080F8211080F82020104610BD000056
:1083E0002DE9F05F90F821100024022903D0042128
:1083F0008163012485E001680A6822F00E020A60A8
:1084000001680A6822F001020A603F4E3E4FB21531
:10841000DFF8F4C0DFF8F090DFF8ECA0DFF8E8B0A8
:10842000DFF8E4E00168783F13011502ACF1640C59
:10843000A9F15009AAF13C0AABF1280BAEF1140ED8
:108440004FF48018B14227D9B9420ED0614512D0FD
:1084500049451DD0514518D0594518D0714501D115
:10846000424615E0294EB14201D1012210E0274ECB
:108470001436B14201D110220AE0244E2836B1420E
:1084800006D0224A3C32914201D11A4600E02A46E7
:108490001E49091F0A602BE0B94213D0614517D06D
:1084A000494522D051451DD059451DD0714501D1B6
:1084B00042461AE0B14202D14FF0807215E0134EED
:1084C000B14201D1012210E0104E1436B14201D167
:1084D00010220AE00D4E2836B14206D00B4A3C323B
:1084E000914201D11A4600E02A46074980394A6084
:1084F000012180F82110002180F82010416B01B18A
:1085000088472046BDE8F09F8000024008040240F2
:1085100070B5044600F0C2F90546601C02D004485C
:108520000078044400F0BAF9401BA042FAD370BDB1
:10853000040000202DE9F047054626480F46012695
:10854000017E01290FD00121814601762868DFF8DC
:1085500088804CF25034022808D0A2462046FFF70B
:10856000F1FEA8B131E00220BDE8F0872046FFF718
:10857000E9FE08BB0120FFF785FE2046FFF7E2FE7B
:10858000D8F81010064621F00401C8F810101CE0BD
:108590004FF0FF303860AC6811E02046FFF784FEF2
:1085A0005046FFF7CFFED8F81010060021F0020168
:1085B000C8F8101001D03C6007E004F50064D5E96C
:1085C000020100EBC120A042E7D8002189F8181071
:1085D0003046C9E7A000002000200240034801699E
:1085E00041F080010161002070470000002002403E
:1085F0002DE9F05F07461C4888460024017E154699
:108600001E46012909D00121814601764CF2503ADB
:108610005046FFF797FE18B122E00220BDE8F09F18
:10862000012F02D0022F00D00427D346DFF83CA050
:10863000220128463146FFF799FD81B208EB44003C
:10864000FFF744FE5846FFF77DFEDAF8102022F0CF
:108650000102CAF8102018B9641CE4B2BC42E7D386
:10866000002289F81820D9E7A0000020002002404D
:10867000064900200A69120607D5054A4A60054ADC
:108680004A600969090600D50120704700200240B0
:1086900023016745AB89EFCD2DE9F84FDFF8C8918D
:1086A0000024A9F1040B23460F2709F1040AABF1BA
:1086B000040ED1E00125A54006EA0502AA4276D1C2
:1086C000DFF8A8C14E68A6EB0C0866452BD00DDC80
:1086D000032E34D005DC36B3012E19D0022E2FD153
:1086E0001BE0112E16D0122E2AD119E0B8F5881FE2
:1086F00019D006DCB8F5803F15D0B8F5801F1FD122
:1087000011E0B8F5001F0ED0B8F5041F18D10AE02B
:10871000CB6815E0CB681B1D12E0CB6808330FE077
:10872000CB680C330CE08B682BB1012B4FF00803A6
:1087300003D0456104E0042302E0056100E000236A
:10874000FF2A01D8064601E000F104064FEA84053D
:1087500001D9A5F12005D6F8008007FA05FC28EA22
:108760000C0803FA05F548EA0508C6F800804D68CC
:10877000ED0070D53E4DAE6946F00106AE61AD69C3
:1087800024F0030605F0010500953A4D06EB050CB3
:10879000DCF80850A607360F07FA06F825EA0805A0
:1087A000DFF8D480404503D14FF0000825E052E0C7
:1087B000DFF8C880404502D14FF001081DE0DFF826
:1087C000C080404502D14FF0020816E0DFF8B480C7
:1087D000404502D14FF003080FE0DFF8AC80404580
:1087E00002D14FF0040808E0DFF8A080404502D134
:1087F0004FF0050801E04FF0060808FA06F848EACD
:108800000508CCF808804D68D9F80060ED024D46A7
:1088100001D5164300E096432E604D68DAF80060FB
:10882000AD02554601D5164300E096432E604D68D3
:10883000DBF80060AD035D4601D5164300E09643CA
:108840002E604D68DEF80060ED03754601D51643D5
:1088500000E096432E60641C0A681646E2407FF4EE
:1088600029AFBDE8F88F0000080401400000111096
:10887000001002400000014000080140000C0140CF
:10888000001001400014014000180140001C01408C
:108890000AB1016170470904FBE7000001488068E4
:1088A00070470000040000200248816802781144EB
:1088B0008160704704000020074810B5016841F04E
:1088C00010010160032000F075F80F2000F006F899
:1088D00000F024F8002010BD0020024070B50D4DBE
:1088E00004464FF47A712878B1FBF0F00A49096820
:1088F000B1FBF0F000F0DCFA48B9102C07D20022EE
:108900002146501E00F036F800206C6070BD01203A
:1089100070BD000004000020100000200C4808B5C5
:10892000816941F001018161816901F001010091DA
:10893000C16941F08051C161C06900F08050009070
:108940000448416821F0E06141F00071416008BDD8
:108950000010024000000140002809DB00F01F0267
:10896000012191404009800000F1E020C0F8001191
:1089700070470000F0B40E4B1B680C46C3F3022393
:10898000C3F10705042D00D90425191D072901D2BB
:10899000002300E0DB1E012606FA05F1491E2140F6
:1089A00099409E40761E16403143F0BC00F0E4BE74
:1089B0000CED00E0064900F0070208684FF6FF03DF
:1089C000184040EA0220034A104308607047000044
:1089D0000CED00E00000FA052DE9F0470F46050018
:1089E00061D0434E306800F00700B84209D23068C9
:1089F00020F0070038433060306800F00700B842CC
:108A000051D128683B4C810712D5400703D56068D7
:108A100040F4E06060602878000703D5606840F4A7
:108A2000605060606068A96820F0F00008436060F2
:108A30002878C00728D06868012810D0216802284B
:108A400010D0890700292EDA616821F00301014363
:108A50006160FFF723FF804641F288390DE021680D
:108A60008903EFE78901EDE7FFF718FFA0EB0801A5
:108A7000494502D90320BDE8F0876068696800F0C5
:108A80000C00B0EB810FEFD1306800F00700B84266
:108A90000BD9306820F0070038433060306800F0B0
:108AA0000700B84201D00120E5E72878400705D546
:108AB0006068E96820F4E060084360602878000797
:108AC00006D56068296920F4605040EAC100606002
:108AD00000F038F86168084AC1F30311515CC840DE
:108AE0000649086006480068FFF7F8FE0020C2E764
:108AF0000020024000100240F29F000810000020F9
:108B0000080000200448054900684968044AC1F388
:108B10000221515CC8407047100000200010024044
:108B200002A000080448054900684968044AC1F3E6
:108B3000C221515CC8407047100000200010024064
:108B400002A000080E4A51680E4801F00C03042BE5
:108B500011D0082B0FD10C48C1F38343C903C05C6B
:108B60000AD55168084AC1F34041921E515C054A3A
:108B70005043B0FBF1F07047044948437047000090
:108B80000010024000127A00E29F000800093D0038
:108B90002DE9F84F040070D02078C04DC00749D0AF
:108BA0006868C0F38100012807D06868C0F38100BD
:108BB000022809D16868C00306D52868800339D522
:108BC00060680028E7D035E06068B0F5803F0BD0E2
:108BD00010B1B0F5A02F11D0286820F480302860A3
:108BE000286820F4802002E0286840F48030286063
:108BF000606890B1FFF752FE06460AE0286840F42C
:108C000080202860F0E700BFFFF748FE801B642843
:108C100073D828688003F7D50CE0FFF73FFE0646BF
:108C200005E000BFFFF73AFE801B6428F0D82868F3
:108C30008003F7D420789A4E80074FF001094FF057
:108C4000000839D5686810F00C0F07D06868C0F3C9
:108C50008100022809D16868C00306D4286880070B
:108C600014D52069012808D110E02069B0B1C6F8F8
:108C70000090FFF713FE074605E00AE1FFF70EFE3E
:108C8000C01B0228C4D828688007F7D52868616906
:108C900020F0F80040EAC10028600DE0C6F800802E
:108CA000FFF7FCFD074604E0FFF7F8FDC01B0228B4
:108CB00023D828688007F7D4207800072CD5794876
:108CC000A169D9B1C0F80090FFF7E8FD074604E0BC
:108CD000FFF7E4FDC01B02280FD8686A8007F7D5AC
:108CE00071484FF4FA510068B0FBF1F0009000BFFA
:108CF0000098411E0091FAD20EE080E0C0F800809A
:108D0000FFF7CCFD074604E0FFF7C8FDC01B0228B3
:108D100075D8686A8007F7D42078400760D5E8697D
:108D20000027C00008D4E86940F08050E861E86995
:108D3000012700F0805000905C480168C90513D4F9
:108D40000168834641F480710160FFF7A7FD824608
:108D500006E000BFFFF7A2FDA0EB0A0064284ED892
:108D6000DBF80000C005F5D5E06801280AD008B19D
:108D7000052813D0286A20F001002862286A20F014
:108D8000040002E0286A40F001002862E06841F235
:108D9000883B98B1FFF782FD82460BE0286A40F0DD
:108DA00004002862EEE700BFFFF778FDA0EB0A01A0
:108DB00059455AD8286A8007F6D50CE0FFF76EFDB2
:108DC000824605E0FFF76AFDA0EB0A0159454CD841
:108DD000286A8007F6D41FB1E86920F08050E86166
:108DE000E06988B36968C1F38101022944D002288F
:108DF000C6F8608004D0FFF751FD044638E034E047
:108E0000FFF74CFD074604E0FFF748FDC01B0228B2
:108E10002BD828688001F7D4206AB0F5803F05D1AF
:108E20006868A16820F4003008436860D4E908014C
:108E30000843696821F4741108436860C6F86090BB
:108E4000FFF72CFD044606E025E000BFFFF726FDF6
:108E5000001B022809D828688001F7D51BE000BF55
:108E6000FFF71CFD001B022802D90320BDE8F88F84
:108E700028688001F4D40EE00128F7D06868226ADF
:108E800000F48031914204D1616A00F4701088428C
:108E900001D00120EAE70020E8E7000000100240CE
:108EA0000000424280044242100000200070004056
:108EB00010B5401EB0F1807F01D3012010BD4FF0EE
:108EC000E02460610F21601700F056FC0020A061D3
:108ED00007202061002010BD70477047F8B5016879
:108EE00004460868CA684B6910F00F0F4FF0000580
:108EF00059D003F0010602F49077374365D0C107DB
:108F000005D0D10503D5616C41F0010161644107D1
:108F100005D5D90703D0616C41F002016164810776
:108F200005D5D90703D0616C41F0040161640107E4
:108F300007D502F02001314303D0616C41F00801F4
:108F40006164616C00293AD0800604D5900602D590
:108F5000204600F0E8FA20684069616CC0F3801098
:108F6000090700D460B3204600F0B6FA20684069D3
:108F7000400621D52068143050E8001F21F0400140
:108F800040E80012002AF5D1E06BA8B16D494163B9
:108F9000E06BFFF725FA002811D0E06B416B01B0C0
:108FA000BDE8F040084783060FD593060DD520464F
:108FB000BDE8F84000F0B7BA2046FFF78EFFF8BDD5
:108FC0002046FFF78AFF6564F8BD266B2023012E3B
:108FD0007CD1C6067AD5D60678D508684868009050
:108FE00048694FF00206400640D5E16B08684068CA
:108FF0000004000CE8D0A28D8242E5D9E0858869A2
:1090000020282DD020680C3050E8001F21F48071FA
:1090100040E80012002AF5D12068143050E8001F03
:1090200021F0010140E80012002AF5D12068143037
:1090300050E8001F21F0400140E80012002AF5D15D
:1090400084F84230256320680C3050E8001F21F07E
:10905000100140E80012002AF5D1E06BFFF79CF9FF
:109060006663A08DE18D401A81B22AE0A08DE18D6A
:10907000401A81B2E08D0028A6D00029A4D0226831
:109080000C3252E8000F20F4907042E80007002FE5
:10909000F5D12068143050E8002F22F0010240E89A
:1090A0000027002FF5D184F84230256320680C306A
:1090B00050E8002F22F0100240E80023002BF5D1E9
:1090C00066632046FFF708FFF8BDFFE705062BD5CE
:1090D000150629D594F841002128F5D1A068B0F5EE
:1090E000805F01D12069B0B1206A411C21622168F2
:1090F00000784860E08C401E0004000CE084E3D15E
:109100002068C16821F08001C1602068C16841F019
:109110004001C160D8E7206A0088C0F308004860B9
:10912000206A801C2062E5E74006CDD55006CBD5ED
:10913000CA68204622F04002CA6084F8413000F03C
:10914000FDF8C1E7C994000870B5040004D094F894
:109150004100002510B106E0012070BD84F84050A8
:10916000204600F023F8242084F841002068C168DC
:1091700021F40051C160204600F036FA20680169F0
:1091800021F4904101612068416921F02A01416187
:109190002068C16841F40051C1606564202084F8F2
:1091A000410084F842006563002070BD30B585B091
:1091B00000240094019402940394006818498842A2
:1091C0002CD11848816941F480418161816901F4A1
:1091D00080410491816941F0040181618069124DEF
:1091E00000F0040004904FF4007000900220019001
:1091F0000320039069462846FFF74EFA2815CDE96B
:109200000004694628460294FFF746FA00221146F8
:109210002520FFF7AFFB2520FFF79EFB05B030BDF3
:1092200000380140001002400008014090F8423030
:10923000202B01D00220704721B11AB10023036313
:1092400000F02EBA0120704770B500680F498842BF
:109250001BD1104C0E4E00256188705C0D2806D085
:109260000A2804D03F2907D2491C618005E021B1BA
:109270007554074800F0BAF8658060883118BDE879
:10928000704001220448FFF7D1BF70BD0038014093
:109290001800002000000020580000202DE9F843AD
:1092A000044690F84100984616460D46202802D004
:1092B0000220BDE8F88385B17EB1002060642120E2
:1092C00084F84100FFF7EAFAA6848146E684A068A4
:1092D0002027B0F5805F02D003E00120E9E7206994
:1092E00010B12E4600250EE000260CE0802120461D
:1092F00000F0F1F9A8B9C6B116F8010B2168486071
:10930000E08C401EE084E08C4B464FF00002CDF82C
:1093100000800028EAD14FF04001204600F0DBF940
:1093200040B184F841700320C3E735F8020BC0F365
:109330000800E3E784F841700020BAE77047FEE7D1
:1093400070B586B0002417480094019402940394E9
:10935000816941F004018161816901F00401049196
:10936000816941F00801816180690F4E00F00800B9
:109370000490002201213046FFF78AFA0125CDE949
:109380000054694609480294FFF786F90220CDE9A6
:1093900002400095694601953046FFF77DF906B019
:1093A00070BD000000100240000C014000080140A8
:1093B0000C4810B50A4901604FF4E13141600021C9
:1093C00081600C22C160C0E904128161C161FFF7B4
:1093D000BBFE002803D0BDE81040FEF750BF10BD13
:1093E0000038014058000020FEE7FEE770B50C0091
:1093F00005460FD008A1FEF7DBFE00280AD007A023
:1094000000F0AAF9224629460FA000F0A5F9134959
:109410000120087070BD00004F544100415050A31E
:10942000BACAD5B5BDC9FDBCB6D6B8C1EEA3ACD7D6
:10943000BCB1B8C7D0BBBBC9FDBCB6C4A3CABD2EA6
:109440002E2E0D0A00000000646174613A25732C11
:109450006C656E3A25640D0A0000000000000020D3
:1094600070477047FFF720BA30B58FB028216846A3
:10947000FEF793FE14210AA8FEF78FFE01210804CF
:10948000CDE900100024029402250491CDE9075093
:109490004FF4E01009906846FFF77AFB08B172B606
:1094A000FEE70F20CDE90A054FF48060CDE90C40BE
:1094B00002210AA80E94FFF78FFA002801D072B695
:1094C000FEE70FB030BD704710B5406A0021C1857E
:1094D000C184FFF702FD10BD01680C3151E8002F77
:1094E00022F4907241E80023002BF5D10168143179
:1094F00051E8002F22F0010241E80023002BF5D1B2
:10950000016B012909D101680C3151E8002F22F0CB
:10951000100241E80023002BF5D1202180F84210F1
:1095200000210163704708B590F84210222901D04C
:10953000022008BD82684FF480539A4201D101692C
:1095400021B1816A9A421BD04AB10AE00268816A5D
:109550005268C2F308020A80816A891C08E0026925
:1095600072B10268526802F07F020A70816A491C77
:109570008162C18D491E0904090CC18503D01BE01D
:1095800002685268F1E70168CA6822F02002CA60E6
:109590000168CA6822F48072CA6001684A6922F0D0
:1095A00001024A61202180F8421000214163026BD0
:1095B000012A03D0FFF748FE002008BD01630168BF
:1095C0000C3151E8002F22F0100241E80023002B5B
:1095D000F5D101680A68D20602D50A684968009187
:1095E000818DFFF779FCE7E770B5044600680169F3
:1095F000E26821F44051114301612169A0680843E8
:10960000616908432168CA6841F20C639A430243C6
:10961000CA6020684169A26921F440711143416127
:109620001E492068884202D1FFF77CFA01E0FFF76B
:1096300069FA00EBC00101EB001260686421800050
:10964000B2FBF0F3B3FBF1F36FF018067343B2FB18
:10965000F0F5B2FBF0F605EB8305322303EB0515BD
:10966000B5FBF1F5B6FBF1F605F0F00505EB0615D7
:10967000B2FBF0F6B2FBF0F0B0FBF1F06FF01802C5
:10968000504306EB800003EB0010B0FBF1F02168C3
:1096900000F00F002844886070BD000000380140D1
:1096A00081628285C28500214164222180F84210B6
:1096B000016921B10168CA6842F48072CA60016818
:1096C0004A6942F001024A610068C16841F0200124
:1096D000C160002070472DE9F843984617460D46B3
:1096E0000446089E24E0701C22D0FFF7D7F8A0EBB8
:1096F0000800B0421AD8CEB12068C168490717D512
:10970000802D15D0402D13D00168C94309070FD40F
:1097100001680025406800902046FFF7DDFE082024
:10972000606484F840500120BDE8F8830320FBE723
:109730002068006835EA000004D00020B842D2D08A
:109740000020F1E70120F9E70148FFF7C7BB00005F
:1097500058000020FEE700000FB4054B10B503A928
:10976000044A029800F03AF810BC5DF814FB0000BF
:10977000359C0008140000200907090E002804DBAE
:1097800000F1E02080F80014704700F00F0000F1B5
:10979000E02080F8141D7047BFF34F8F0548016823
:1097A000054A01F4E06111430160BFF34F8F00BF30
:1097B000FDE700000CED00E00400FA0502E008C837
:1097C000121F08C1002AFAD170477047002001E03B
:1097D00001C1121F002AFBD1704700002DE9FF4F85
:1097E0008DB00F460546002606E025280BD0DDE9A2
:1097F0000F1290476D1C761C28780028F5D111B007
:109800003046BDE8F08F0024A246A1460122E94976
:1098100000E0044315F8013F203B02FA03F0084240
:10982000F7D128782A2810D06FF02F022878A0F1DD
:109830003001092914D80AEB8A0102EB410144F0F6
:10984000020400EB010A6D1CF0E701CF5FEA000A99
:1098500003D544F40054CAF1000A44F002046D1C1C
:1098600028782E2817D115F8010F44F004042A286F
:109870000ED06FF02F022878A0F1300109290AD804
:1098800009EB890102EB410100EB01096D1CF2E7D4
:1098900057F8049B6D1C28786C280FD006DC4C28E8
:1098A00017D068280DD06A2814D104E0742810D08D
:1098B0007A280FD10DE044F400140AE044F4801437
:1098C00001E044F440146978814202D104F5801427
:1098D0006D1C6D1C28786E281ED00CDC632830D0DF
:1098E00004DC00288BD0582811D19FE0642867D071
:1098F00069280CD164E073282DD004DC6F2872D065
:10990000702804D194E075286ED078286DD0DDE9F8
:109910000F129047761C4BE1C4F30250022806D088
:10992000032809D0042801CF09D0066040E101CF07
:10993000F117C0E900613BE101CF068038E1067014
:1099400036E117F8040B8DF8000000208DF80100B7
:10995000EB46012003E057F804BB4FF0FF306107EE
:109960004FF0000102D40DE008F10101884649459D
:109970000FDA8045F8DB1BF808100029F4D108E065
:1099800008F1010188468142FADB1BF80810002922
:10999000F6D1DDE90F23AAEB08008146214600F04D
:1099A00031F9304400EB080604E0DDE90F121BF842
:1099B000010B9047B8F10108F7D221464846F2E082
:1099C0000A21C4F302524FF0000B0891022A04D07E
:1099D00001CFC117032A09D00AE0FF1D27F00707AE
:1099E000F7E8020108E02CE01EE01FE000B2C1171A
:1099F000042A01D140B2C117021E71F1000206DA39
:109A00000023D0EB030063EB01012D2202E02205CD
:109A100004D52B228DF82420012203E0E20701D097
:109A20002022F7E7904653E00A210BE0102109E0DD
:109A300010214FF0000B44F004044FF00809089186
:109A400003E008214FF0000B0891C4F30252022AF0
:109A500004D001CF0021032A06D006E0FF1D27F025
:109A60000707F7E8020103E080B2042A00D1C0B280
:109A70004FF0000822072BD52A78702A07D0DDF88E
:109A800020C08CF0100C5CEA0B0C05D00EE04022DC
:109A90008DF82420012208E050EA010306D030238B
:109AA0008DF824308DF8252002229046089B83F003
:109AB000080353EA0B030BD150EA010201D16207FC
:109AC00006D530228DF824204FF00108A9F10109B4
:109AD0002A78582A04D038A20B9208AA0A920BE0DE
:109AE0003AA2F9E75B46089AFEF774FB0B9B9B5C76
:109AF0000A9A521E0A92137050EA0102F2D10A9891
:109B0000ADEB000000F1200B600702D524F4803497
:109B100001E04FF00109D94502DDA9EB0B0000E09F
:109B2000002000EB0B0141440890AAEB010AE0037E
:109B300006D4DDE90F232146504600F063F80644C1
:109B40004FF0000908E009A911F80900DDE90F123A
:109B5000904709F10109761CC145F4DBE0030CD5FF
:109B6000DDE90F232146504600F04CF8064404E09E
:109B7000DDE90F1230209047761C0899481E0890A6
:109B80000029F5DC08E00A980A990078491C0A9136
:109B9000DDE90F129047761CBBF10001ABF1010B20
:109BA000F1DC21465046DDE90F2300F019F80644A8
:109BB0006D1C21E609280100303132333435363747
:109BC0003839616263646566000000003031323309
:109BD00034353637383941424344454600000000A9
:109BE0002DE9F041044600251E461746880404D49A
:109BF00005E039462020B0476D1C641EF9D5284683
:109C0000BDE8F0812DE9F041044600251E4690464E
:109C1000C80301D5302700E02027880404D505E0DB
:109C200041463846B0476D1C641EF9D52846BDE84C
:109C3000F081000013B54FF6FF7301226946024818
:109C4000FFF72CFB00981CBD5800002010B500F059
:109C500019F810B14FF0FF3010BD024890F90A001A
:109C600010BD0000C000002010B500F00BF810B1CE
:109C70004FF0FF3010BD024890F9090010BD000000
:109C8000C000002070B510221449154800F082F879
:109C9000124C2078AA2808D16078BB2805D1A0787A
:109CA000CC2802D1E078DD2804D00EA0FFF754FDC7
:109CB000012070BD0B21094800F060F805460146FF
:109CC0000DA0FFF749FDE07AA84204D00EA0FFF7EF
:109CD00043FD022070BD002070BD0000C0000020C8
:109CE00000600008666C617368206D6167696320BD
:109CF0006572726F720D0A00636865636B73756DD0
:109D00003A25640D0A000000666C61736820636880
:109D100065636B73756D206572726F720D0A00005A
:109D200070B50446FFF7AEFF28B10AA0FFF714FD97
:109D30004FF0FF3070BD0F4D0B2128462C7200F004
:109D40001DF8E872042229460B4800F032F8002082
:109D500070BD0000666C6173682067657420757063
:109D60006461746520666C6167206572726F720D44
:109D70000A000000C000002000600008034610B583
:109D80000020024603E09C5C521C2044C0B28A4280
:109D9000F9D310BD10B5B2F5006F01D9012010BD87
:109DA000002302E0C45CCC545B1C9342FAD3002035
:109DB00010BDF0B585B0002416460F460546009448
:109DC000019402940394FEF753FC01200295009441
:109DD000CDE9030404A96846FEF7ACFB08E057F898
:109DE000242005EB840100230220FEF701FC641C03
:109DF000B442F4D3FEF7F2FB05B00020F0BD000042
:109E000008B5FEF759FDFFF72FFBFFF799FAFFF7AB
:109E1000CFFA62B62B48006804E04168ADF8001044
:109E2000BDF800100168C9438906F6D540212648CF
:109E3000FEF7B3F9254C002525A06580FFF78CFCC3
:109E40002FA0FFF789FC37A0FFF786FC3EA0FFF7A5
:109E500083FCFFF7FBFE4749012824D046480860F1
:109E6000FFF702FF00F0FF08FFF7F0FEC6B216484A
:109E70006188012201441348FFF7D8F94FF47A773B
:109E80002078012811D03DA13EA0FFF765FC414696
:109E900042A0FFF761FC314646A0FFF75DFC384663
:109EA000FEF736FBECE74948D9E70120FFF738FF1A
:109EB00047A0FFF751FC3846FEF72AFB2570FFF755
:109EC0006BFC00005800002018000020000000205B
:109ED0000D0A3D3D3D3D3D3D3D3D3D3D3D3D3D3D15
:109EE0003D3D3D3D3D3D3D3D3D3D3D3D3D3D3D3DA2
:109EF0003D3D3D3D3D3D3D3D3D3D3D0D0A000000AC
:109F0000202020204170706C69636174696F6E203D
:109F100050726F6772616D2052756E6E696E670D5B
:109F20000A0000002020202053656E6420274F5433
:109F3000412720746F207265717565737420757088
:109F4000646174650D0A00003D3D3D3D3D3D3D3D74
:109F50003D3D3D3D3D3D3D3D3D3D3D3D3D3D3D3D31
:109F60003D3D3D3D3D3D3D3D3D3D3D3D3D3D3D3D21
:109F70003D0D0A0008ED00E00040040856302E3484
:109F80002E30000043757272656E742056657273D0
:109F9000696F6E3A25730D0A00000000B5B1C7B0B5
:109FA000D4CBD0D0B7D6C7F8CAC761707025640DBE
:109FB0000A000000CFC2D2BBB4CED4CBD0D0B7D62B
:109FC000C7F8CAC761707025640D0A0000800008D8
:109FD0004F54412052656365697665640D0A00003F
:109FE000010202030405060708090A0B0C0D0E0FF7
:109FF000101000000000000000000102030406072A
:10A000000809000000000102030400002CA0000861
:10A010000000002018000000BC97000844A00008C1
:10A0200018000020B8040000CC97000800000000D1
:10A0300001000000100000000000000000127A0083
:04A04000000000001C
:04000005080081313D
:00000001FF
